{
  "contractName": "ToDo",
  "abi": [
    {
      "inputs": [],
      "payable": false,
      "stateMutability": "nonpayable",
      "type": "constructor"
    },
    {
      "anonymous": false,
      "inputs": [
        {
          "indexed": false,
          "name": "",
          "type": "uint256"
        },
        {
          "indexed": false,
          "name": "",
          "type": "uint256"
        },
        {
          "indexed": false,
          "name": "",
          "type": "string"
        },
        {
          "indexed": false,
          "name": "",
          "type": "string"
        },
        {
          "indexed": false,
          "name": "",
          "type": "bool"
        }
      ],
      "name": "TaskCreated",
      "type": "event"
    },
    {
      "constant": false,
      "inputs": [
        {
          "name": "_content",
          "type": "string"
        },
        {
          "name": "_author",
          "type": "string"
        }
      ],
      "name": "createTask",
      "outputs": [],
      "payable": false,
      "stateMutability": "nonpayable",
      "type": "function"
    },
    {
      "constant": true,
      "inputs": [],
      "name": "getTaskIds",
      "outputs": [
        {
          "name": "",
          "type": "uint256[]"
        }
      ],
      "payable": false,
      "stateMutability": "view",
      "type": "function"
    },
    {
      "constant": true,
      "inputs": [
        {
          "name": "id",
          "type": "uint256"
        }
      ],
      "name": "getTask",
      "outputs": [
        {
          "name": "",
          "type": "uint256"
        },
        {
          "name": "",
          "type": "uint256"
        },
        {
          "name": "",
          "type": "string"
        },
        {
          "name": "",
          "type": "string"
        },
        {
          "name": "",
          "type": "bool"
        }
      ],
      "payable": false,
      "stateMutability": "view",
      "type": "function"
    }
  ],
  "bytecode": "0x608060405234801561001057600080fd5b50600080819055506107c9806100276000396000f300608060405260043610610057576000357c0100000000000000000000000000000000000000000000000000000000900463ffffffff1680631d65e77e1461005c578063292a458514610187578063bcd1480514610236575b600080fd5b34801561006857600080fd5b50610087600480360381019080803590602001909291905050506102a2565b60405180868152602001858152602001806020018060200184151515158152602001838103835286818151815260200191508051906020019080838360005b838110156100e15780820151818401526020810190506100c6565b50505050905090810190601f16801561010e5780820380516001836020036101000a031916815260200191505b50838103825285818151815260200191508051906020019080838360005b8381101561014757808201518184015260208101905061012c565b50505050905090810190601f1680156101745780820380516001836020036101000a031916815260200191505b5097505050505050505060405180910390f35b34801561019357600080fd5b50610234600480360381019080803590602001908201803590602001908080601f0160208091040260200160405190810160405280939291908181526020018383808284378201915050505050509192919290803590602001908201803590602001908080601f0160208091040260200160405190810160405280939291908181526020018383808284378201915050505050509192919290505050610483565b005b34801561024257600080fd5b5061024b6106a0565b6040518080602001828103825283818151815260200191508051906020019060200280838360005b8381101561028e578082015181840152602081019050610273565b505050509050019250505060405180910390f35b6000806060806000856000600260008381526020019081526020016000206000015414156102cf57600080fd5b866002600089815260200190815260200160002060010154600260008a8152602001908152602001600020600201600260008b8152602001908152602001600020600301600260008c815260200190815260200160002060040160009054906101000a900460ff16828054600181600116156101000203166002900480601f0160208091040260200160405190810160405280929190818152602001828054600181600116156101000203166002900480156103cc5780601f106103a1576101008083540402835291602001916103cc565b820191906000526020600020905b8154815290600101906020018083116103af57829003601f168201915b50505050509250818054600181600116156101000203166002900480601f0160208091040260200160405190810160405280929190818152602001828054600181600116156101000203166002900480156104685780601f1061043d57610100808354040283529160200191610468565b820191906000526020600020905b81548152906001019060200180831161044b57829003601f168201915b50505050509150955095509550955095505091939590929450565b600080815480929190600101919050555060a0604051908101604052806000548152602001428152602001838152602001828152602001600015158152506002600080548152602001908152602001600020600082015181600001556020820151816001015560408201518160020190805190602001906105059291906106f8565b5060608201518160030190805190602001906105229291906106f8565b5060808201518160040160006101000a81548160ff021916908315150217905550905050600160005490806001815401808255809150509060018203906000526020600020016000909192909190915055507fb322bdd3250d405f7845d27fa1f0753f8f7e18e40886bc254b89005c3e9c0324600054428484600060405180868152602001858152602001806020018060200184151515158152602001838103835286818151815260200191508051906020019080838360005b838110156105f75780820151818401526020810190506105dc565b50505050905090810190601f1680156106245780820380516001836020036101000a031916815260200191505b50838103825285818151815260200191508051906020019080838360005b8381101561065d578082015181840152602081019050610642565b50505050905090810190601f16801561068a5780820380516001836020036101000a031916815260200191505b5097505050505050505060405180910390a15050565b606060018054806020026020016040519081016040528092919081815260200182805480156106ee57602002820191906000526020600020905b8154815260200190600101908083116106da575b5050505050905090565b828054600181600116156101000203166002900490600052602060002090601f016020900481019282601f1061073957805160ff1916838001178555610767565b82800160010185558215610767579182015b8281111561076657825182559160200191906001019061074b565b5b5090506107749190610778565b5090565b61079a91905b8082111561079657600081600090555060010161077e565b5090565b905600a165627a7a72305820ff490503ca296401a8dbabcd76f44ab0bc839ffcdccc088b27d75381b4fe72430029",
  "source": "pragma solidity ^0.4.4;\n\n\ncontract ToDo {\n  struct Task{\n    uint id;\n    uint date;\n    string content;\n    string author;\n    bool done;\n    }\n  \n  uint lastTaskId;\n  uint[] taskIds;\n  mapping(uint =>Task) tasks;\n  \n  event TaskCreated (uint, uint, string, string, bool);\n  \n  \n  function ToDo() public {\n      lastTaskId = 0;\n      \n  }\n  function createTask(string _content, string _author) public{\n    lastTaskId++;\n    tasks[lastTaskId]= Task(lastTaskId, now, _content, _author, false);\n    taskIds.push(lastTaskId);\n    \n    TaskCreated(lastTaskId,now,_content, _author,false);\n  }\n  \n  function getTaskIds() public constant returns(uint[]){\n      return taskIds;\n  }\n  \n  function getTask(uint id) taskExists(id) public constant\n  returns (\n    uint,\n    uint,\n    string,\n    string,\n    bool){\n       \n      return(\n        id,\n        tasks[id].date,\n        tasks[id].content,\n        tasks[id].author,\n        tasks[id].done);\n    }\n    \n\n\n     modifier taskExists(uint id)   {\n      if(tasks[id].id==0){\n            revert();\n        }\n        _;\n  \n    }\n}",
  "sourcePath": "/home/ubuntu/workspace/todo1/contracts/ToDo.sol",
  "compiler": {
    "name": "solc",
    "version": "0.4.24+commit.e67f0147.Emscripten.clang"
  },
  "schemaVersion": "2.0.1",
  "updatedAt": "2018-10-01T01:01:41.195Z"
}